:020000040800F2
:10000000600B0020A10100085F290008D921000829
:100010005D290008F5120008132B000800000000FD
:10002000000000000000000000000000AD2A0008F1
:10003000F712000800000000AB2A0008AF2A0008F1
:10004000BB010008BB010008BB010008BB010008A0
:10005000BB010008BB010008BB010008BB01000890
:10006000BB010008BB010008BB010008BB01000880
:10007000BB010008BB010008BB010008BB01000870
:10008000BB010008BB010008BB010008BB01000860
:10009000BB010008BB010008BB010008BB01000850
:1000A000BB010008BB010008BB010008BB01000840
:1000B000BB010008BB010008BB010008BB01000830
:1000C000BB010008BB010008BB010008BB01000820
:1000D000BB010008BB010008BB010008BB01000810
:1000E000BB010008BB010008BB01000800F002F8DA
:1000F00000F047F80AA090E8000C82448344AAF17B
:100100000107DA4501D100F03CF8AFF2090EBAE878
:100110000F0013F0010F18BFFB1A43F0010318473B
:10012000703F0000903F0000103A24BF78C878C1AB
:10013000FAD8520724BF30C830C144BF04680C60ED
:10014000704700000023002400250026103A28BF35
:1001500078C1FBD8520728BF30C148BF0B60704739
:10016000662903F0F781002070471FB500F088FB77
:1001700004000020002102F0D1FDE0601FBD10B599
:1001800010BD00F07AFC1146FFF7EFFF02F024FDEE
:1001900000F098FC03B4FFF7F2FF03BC00F0DCFCB6
:1001A0000948804709480047FEE7FEE7FEE7FEE70B
:1001B000FEE7FEE7FEE7FEE7FEE7FEE70448054947
:1001C000054A064B70470000112B0008ED0000089F
:1001D00060050020600B0020600700206007002001
:1001E0000FB41CB5074B06AA7B44694600900598DE
:1001F00000F029FB0020694600F038FB1CBC5DF8CC
:1002000014FB00008106000070B504468569006893
:10021000C10601D5302600E02026C00707D070BDFA
:10022000D4E9012130469047206A401C20626D1EAF
:10023000F6D570BD70B5044685690078C00707D152
:1002400070BDD4E9012120209047206A401C206223
:100250006D1EF6D570BD2DE9F0474FF0000A8946B6
:100260000446C0F820A02046E1688847002876D0E0
:10027000252806D0D4E901219047206A401C20623D
:10028000F1E7E168204600258847C4F81CA006462F
:100290000027C4F818A02A2E09D0304602F05EFCD0
:1002A00038B304EB8708303EC8F8186019E059F8F5
:1002B000041B204604EB87029161E1688847012F07
:1002C000064618D1E069002820DA25F020051DE057
:1002D000D8F8180000EB800006EB40003038C8F872
:1002E00018002046E1688847064602F037FC0028DF
:1002F000EED1012F0AD02E2E08D12046E168884782
:100300007F1C0646022F45F02005C4DBA0690028AB
:1003100003DA404245F00105A061E80701D025F06D
:100320001005B6B1A6F14100192802D8203645F4CF
:1003300000654A463146204625604D46FFF710FFCE
:1003400058B1012806D0ED1D25F0070000F108097D
:1003500089E704E005F1040985E730468AE7206A69
:10036000BDE8F08710B5203AC0F00B80B1E8185016
:10037000203AA0E81850B1E81850A0E81850BFF48F
:10038000F5AF5FEA027C24BFB1E81850A0E818502E
:1003900044BF18C918C0BDE810405FEA827C24BF82
:1003A00051F8043B40F8043B08BF7047D20728BF10
:1003B00031F8023B48BF11F8012B28BF20F8023B5F
:1003C00048BF00F8012B70474FF0000200B51346FC
:1003D00094469646203922BFA0E80C50A0E80C5065
:1003E000B1F12001BFF4F7AF090728BFA0E80C5016
:1003F00048BF0CC05DF804EB890028BF40F8042B0F
:1004000008BF704748BF20F8022B11F0804F18BF7B
:1004100000F8012B704770477047704770472DE90F
:10042000FF4F0C461E464FF0FF378BB0D2E900015C
:10043000DDF860800A908A46C1F30A5505B93D4649
:10044000002108464FF00000BAF1000F00F4400010
:1004500005DA00EB80004FF4400101EA50004FEA5A
:100460009059B9F1010F00DDB9460A9850EA4A00E7
:100470000ED044F61050A5F2FF3545432F14B8F1C5
:10048000000F1ED07542291E1EDDC9F100021CE0BE
:10049000B8F1010F4FF0000001D0302103E0F2432A
:1004A00005E02154401CB042FBDB30460022002115
:1004B00021540B99C1F80880C1E900200FB0BDE8B4
:1004C000F08FBD1B6D1CDEE74A4600DA694206A8C4
:1004D00000F060FA06AB93E8070003AB83E807007F
:1004E00050460A9900F03EFB8DE80700A0F5005049
:1004F0001F3800900398002D0ADD42F21F014A4682
:100500000844002303A90390684600F0A7FD09E012
:10051000A0F500504A461F38002303A903906846FF
:1005200000F0B1FD8DE807000004000C03D04FF08F
:10053000FF30410800E01046B8F1000F03D0002260
:10054000009215461EE0751E05D400F09DF930326C
:1005500062556D1EF9D5B3460122084302D0002230
:100560007F1C04E02078302801D100227F1E002A61
:10057000099784D01DE0112D07DA00F085F930329B
:1005800062556D1C50EA0102F5D1084302D0009873
:10059000C8B10EE00021681E05E0235C625C635474
:1005A0002254401E491C8142F7DBAB46A81B401E6B
:1005B0000990002004F80B000B98099AC0F80880F5
:1005C000C0E9002B7AE711264FF0000857E72DE924
:1005D000F04F88460446D21D22F0070191B0D1E9C0
:1005E0000001CDE90A0102F095FA02460B98C00F0E
:1005F00001D02D2007E02068810701D52B2002E0E3
:10060000202101EAC000032A099001D0072A05DB56
:1006100003464146204600F07DF90BE12078800634
:1006200001D5E06900E00620B8F1650F814606D0EB
:10063000B8F1660F18D0B8F1670F70D131E0002023
:10064000B9F1110F009001DB112301E009F1010361
:100650000AAA01A90CA8FFF7E2FEDDE90C7000264A
:1006600009F10105834647E001204B4600904FF019
:1006700000470AAA01A90CA8FFF7D1FEDDE90DB0D9
:100680000C995D46002610B909F101000D18B9EB6F
:10069000050003D4C0F1FF3609F10105A5EB0900FF
:1006A0002BE0B9F1010F01DA4FF001090020B9F197
:1006B000110F0090484601DD112300E003460AAA0D
:1006C00001A90CA8FFF7ABFEDDE90C704D46002632
:1006D0008346207800070AD4AB4500DA5D4601A8BE
:1006E000012D04DD411911F8011C302907D04F45B7
:1006F00002DA17F1040F04DA012082460FE06D1EC2
:10070000EEE7002F02DCED1B3E4403E0781CA8421C
:1007100000DD7D1CB81B00F1010A4FF00047207876
:10072000000703D4AA4501DB4FF0FF3A0021B7F1DF
:10073000004F0DF143088DF8431024D002202B23E5
:10074000002F01DA7F422D230A21021EA0F10100B1
:1007500000DC5FB197FBF1FC97FBF1F201FB1C7C25
:1007600017460CF1300C08F801CDEEE7A8F10100B6
:1007700003702188090501D5452100E06521A0F11C
:10078000010800F8011C09980FA9A1EB0807FF1D3B
:1007900000B10120411901EBEA70A1693844081A3F
:1007A000401EA0612078C00602D42046FFF72CFD31
:1007B000099828B1D4E901219047206A401C2062A1
:1007C0002078C00622D52046FFF71EFD1EE0002E31
:1007D00004DBB34502DD01A8805D00E03020D4E9F0
:1007E00001219047206A401C2062761CAAF101007A
:1007F0005FEA000A0AD100F043F8C0680168405C73
:10080000D4E901219047206A401C2062281EA5F1EE
:100810000105DCDC07E0D4E9012118F8010B904761
:10082000206A401C2062381EA7F10107F3DC204635
:10083000FFF700FD032011B041E6000001694A1CEA
:1008400002610878704700B58FB0CDE90131002111
:10085000059105497944CDE9031011466846FFF733
:10086000FAFC0FB000BD0000E5FFFFFF0A6802F8C8
:10087000010B0A607047000000487047FC0400202C
:10088000004870471C05002030B5B0F10A024FEA5D
:10089000900E71F100034EEA817EB0EB0E0061EB29
:1008A00091014FEA101E4EEA017E10EB0E0041EB63
:1008B00011114FEA102E4EEA016E10EB0E0041EBC3
:1008C00011214FEA104E4EEA014E10EB0E0041EBA3
:1008D0001141401841F100014FEAD00040EA417057
:1008E0004FEAD10110EB80054FEA810444EA90748D
:1008F00044EB01046D1944EB0404521BA3414FF077
:10090000000348BF0A3200D530BD401C41F1000150
:1009100030BD00002DE9F0411F4604460326016862
:10092000072A01F4006004DB08B116A505E016A54E
:1009300003E008B115A500E015A521F01000206026
:10094000A069C01EA0610FB1401EA0612046FFF744
:100950005BFC4FB1D4E9012138469047206A401C26
:100960002062C01C206206E0206AFAE7D4E9012177
:1009700015F8010B9047761EF8D22046FFF75AFC77
:10098000BDE8F0814E414E006E616E00494E46005A
:10099000696E66002DE9F047814616468AB03548F3
:1009A00078440DC88DE80D0032487844801C03ACB3
:1009B0000DC884E80D0041F69B300844372190FBB8
:1009C000F1F290FBF1F5A5F1800501FB12041B3C4F
:1009D00002D56442012000E00020DFF898A08046A4
:1009E0000027FA44AAF1BE0A0EE0E0070AD0324618
:1009F000684607EB470101230AEB810100F043FB46
:100A00008DE8070064107F1C002CEED1194F7F4445
:100A1000AE3F19E0E80715D007EB04100DF1180AF6
:100A200090E80E008AE80E00C068F04201D19819E3
:100A300008903246012306A903A800F024FB03AB6B
:100A400083E807006D10641C002DE3D14FF0010313
:100A500032466946B8F1000F03A802D000F0FEFA52
:100A600001E000F010FBC9E90001C9F808200AB054
:100A7000BDE8F087D436000070477546FFF7FCFEEE
:100A8000AE4605006946534620F00700854618B07B
:100A900020B5FFF793FBBDE820404FF000064FF074
:100AA00000074FF000084FF0000B21F00701AC46A3
:100AB000ACE8C009ACE8C009ACE8C009ACE8C009C2
:100AC0008D46704710B50446AFF300802046BDE860
:100AD0001040FFF75FBB00004FF0013C50F8042BC3
:100AE00051F8043B9A4221D1A2EB0C03934313EA41
:100AF000CC1317D150F8042B51F8043B9A4215D16E
:100B0000A2EB0C03934313EACC130BD150F8042B44
:100B100051F8043B9A4209D1A2EB0C03934313EA28
:100B2000CC13DBD04FF00000704700BFD01A01BAE1
:100B3000B1FA81F101F0180122FA01F0CB40C1F1C4
:100B40002001DBB2C0B2C01A2CFA01F3D11A9143D2
:100B500011EAC311E6D1704701491820ABBEFEE788
:100B6000260002005FEA400C08BF91F0000F4FEA38
:100B70008C234FEAC12243EA51514FEA1C5018BF5F
:100B800000F5F0404FEA300018BF41F000415FEA45
:100B90006C5C00F02980BCF1FF3F08BF40F0804052
:100BA0007047130C06BF12044FF0100C4FF0000CEE
:100BB000130E04BF12020CF1080C130F04BF120134
:100BC0000CF1040C930F04BF92000CF1020CD30F34
:100BD00004BF52000CF1010C11464FF00002A0F1CD
:100BE0001F00A0EB0C00704711F0004F08BF7047CA
:100BF00031F000413FF4D5AF0B0C06BF09044FF0B4
:100C0000100C4FF0000C0B0E04BF09020CF1080C85
:100C10000B0F04BF09010CF1040C8B0F04BF8900FA
:100C20000CF1020CCB0F04BF49000CF1010CCCF10C
:100C30002003A0EB0C0022FA03F302FA0CF241EAC3
:100C4000030100F10100704720F07F4C80EA0300AF
:100C500023F07F47ACEB070303F57C5300F0004023
:100C600003F1FF032DE980494FEA154B09B44FEA20
:100C7000144325EA0B4E24EA03480FF2042606EB40
:100C8000132749083E785FEA320203FB0667C7F57F
:100C9000000707FB06F64FEA54374FEAD64606F13F
:100CA000020607FB066CCCF1005C4FEA1C472CEAFD
:100CB000074C07FB06F40CFB06F504EB15464FEA60
:100CC000961634BF00204FF000404FEAD13706FBA4
:100CD00007FC4FEA1C4C0CFB0BF7D21B03FB0CF779
:100CE00061EB07010CFB0EF7B0EB074072EB17420C
:100CF0000CFB08F734BFA2EB0742B2EB074261EBF3
:100D000017414FEA0C444FEA910706FB07FC4FEAF4
:100D10001C4C0CFB0BF7B0EBC74072EB573203FBDC
:100D20000CF734BFA2EBC742B2EBC74261EB5731BD
:100D30000CFB0EF7B0EBC70072EB57720CFB08F719
:100D400034BFA2EBC702B2EBC70261EB5771039F3E
:100D50004FEA816141EA921104EBCC044FEAD137AA
:100D60004FEA826206FB07FC42EA90124FEA80607B
:100D70004FEA1C4C0CFB0BF7D21B03FB0CF761EB8F
:100D800007010CFB0EF7B0EB074072EB17420CFBB0
:100D900008F734BFA2EB0742B2EB074261EB174101
:100DA0004FEA8C554FEA910704EB9C2406FB07FCA5
:100DB0004FEA1C4C0CFB0BF7B0EBC74072EB573201
:100DC00003FB0CF734BFA2EBC742B2EBC74261EBA7
:100DD00057310CFB0EF7B0EBC70072EB57720CFBF0
:100DE00008F734BFA2EBC702B2EBC70261EB577141
:100DF00015EB4C254FEA816141EA92114FEA82627C
:100E00004FEAD13742EA901206FB07FC44F1000496
:100E10004FEA80604FEA1C4C0CFB0BF7D21B03FB24
:100E20000CF761EB07010CFB0EF7B0EB074072EB20
:100E300017420CFB08F734BFA2EB0742B2EB0742A4
:100E400061EB174115EB1C154FEA813141EA9241E4
:100E50004FEA823242EA90424FEA80304FEA0C7603
:100E600044F1000448EA03434EEA0B484FF0000EF9
:100E7000B2EB080C71EB030724BF624639464EEB18
:100E80000E0E4FF0000B0018524149414BEB0B0B7B
:100E9000B2EB080C71EB03077BF1000B24BF624639
:100EA00039464EEB0E0E4FF0000B001852414941EF
:100EB0004BEB0B0BB2EB080C71EB03077BF1000B58
:100EC00024BF624639464EEB0E0E51EA020718BFA8
:100ED00046F0010616EB0E7655F1000254F10001C2
:100EE00003D5BDE88901BDE80088BDE88901BDE8FA
:100EF0000048B619524141EB0101A3F101037047CB
:100F000080807F7E7D7C7B7A797877767675747346
:100F1000727171706F6E6E6D6C6C6B6A6A69686805
:100F2000676666656464636362616160605F5F5E9B
:100F30005E5D5D5C5C5B5B5A5A5959585857575611
:100F40005655555554545353525252515150505076
:100F50004F4F4F4E4E4D4D4D4C4C4C4B4B4B4A4AC8
:100F60004A4949494848484747474746464645450C
:100F70004544444444434343434242424241414145
:100F8000002B9C4630D477002BD01CB54FEA370796
:100F900003B44FF010004FF01001BAF1000F06D06B
:100FA000BCF1000FDCBF40F0080040F008014FF03A
:100FB00000000FBCBDE810400BF1010BBBF1010FAD
:100FC00008BF5FEA170722BF12F1010211F1010108
:100FD0004FF0004143F1000300F0004043EA0000FD
:100FE0007047F9D35708D0E746EA064613F1400F99
:100FF0004FEA16461FDD13F1200FDFBF16430A46E6
:10100000002120335B42BED0C3F1200746EA0646EA
:1010100002FA07F74FEA164646EA0706C3F1200729
:1010200022FA03F201FA07F721FA03F14FF0000365
:1010300042EA0702A7E746EA020646EA06464FEA00
:10104000164646EA0106BCBF46EA0646360C4FF095
:1010500000034FF000024FF0000194E72DE9804CAF
:101060009A46934670B491E8380007C831EA400CBC
:1010700048BF34EA430C03D5FFF7E6FDFFF780FFD6
:10108000F0BCBDE8008C2DE9804C9A46934670B4C4
:1010900091E8380007C810F0804F08BF13F0804F68
:1010A00003D100F005F8FFF76BFFF0BCBDE8008C42
:1010B00020F07F4780EA030023F07F4C07EB0C030E
:1010C000A3F57C5300F00040A3F1FE0392F0000F63
:1010D00000F0B38095F0000F00F077802DE9014912
:1010E0004FEA11404FEA144621EA004800FB06FC93
:1010F00024EA064708FB06F607FB08F800FB07F79B
:1011000018EB06484CEB164C4FEA124B18EB07480D
:101110004FEA15464CEB174022EA0B4E0BFB06FC40
:1011200025EA06470EFB06F607FB0EFE0BFB07F74C
:101130001EEB064E4CEB164C4FF000061EEB074E16
:101140004CEB174B18EB0B0840F1000018EB0E0BA3
:1011500058EB000840F100008F1A4FF000013CBF2F
:10116000C943661B14BFB5EB040C00213CBFC94347
:10117000F61B4FEA17444EEA8E0E27EA04454FEA63
:101180001C4704FB07622CEA074C05FB07F70CFB26
:1011900005F604FB0CFC16EB074642EB174216EB78
:1011A0000C4642EB1C421BEB060658EB0202414187
:1011B00046EA9E0601D5BDE80189B619524141EBC8
:1011C0000101A3F10103BDE801894FEA14454FEA8B
:1011D000114724EA054621EA074C05FB07F406FB04
:1011E00007F70CFB06F105FB0CFC11EB074144EB88
:1011F00017444FEA124711EB0C4144EB1C4422EA1E
:10120000074C05FB07F206FB07F70CFB06F605FB90
:101210000CFC16EB074642EB174216EB0C4642EB72
:101220001C456A1854F1000148BF7047B619524175
:1012300041EB0101A3F10103704795F0000F37D096
:101240004FEA11424FEA144721EA024624EA074CCA
:1012500002FB07F106FB07F70CFB06F402FB0CFC94
:1012600014EB074441EB17414FEA154714EB0C44CC
:1012700041EB1C4125EA074C02FB07F506FB07F78B
:101280000CFB06F602FB0CFC16EB074645EB17457C
:1012900016EB0C4645EB1C42121951F1000148BFF8
:1012A0007047B619524141EB0101A3F101037047A8
:1012B0004FEA14454FEA114724EA054621EA074C54
:1012C00005FB07F106FB07F70CFB06F24FF00006E3
:1012D00005FB0CFC12EB074241EB174112EB0C42F1
:1012E00051EB1C4148BF7047921841EB0101A3F13B
:1012F00001037047FEE7704772B6FEE770B504461B
:1013000000F0FEF80546601C02D004480078044452
:1013100000F0F6F8401BA042FAD370BD4400002054
:101320002DE9F84FDFF8B8910024A9F1040B23460A
:101330000F2709F1040AABF1040EC9E00125A5400D
:101340002A40AA427DD1674ED1F804C0ACEB060812
:10135000B44532D014DCBCF1030F3AD009DCBCF147
:10136000000F2AD0BCF1010F1CD0BCF1020F31D10B
:101370001DE0BCF1110F17D0BCF1120F2AD119E0FA
:10138000B8F5881F19D006DCB8F5803F15D0B8F540
:10139000801F1FD111E0B8F5001F0ED0B8F5041F53
:1013A00018D10AE0CB6815E0CB681B1D12E0CB68B2
:1013B00008330FE0CB680C330CE08B682BB1012BAA
:1013C0004FF0080303D0456104E0042302E0056107
:1013D00000E00023FF2A01D8064601E000F10406E0
:1013E0004FEA840501D9A5F12005D6F8008007FA57
:1013F00005FC28EA0C0803FA05F548EA0508C6F8D2
:1014000000804D68ED0062D5374DAE6946F00106AB
:10141000AE61AD6924F0030605F001050095334D7A
:1014200006EB050CDCF80850A607360F07FA06F89D
:1014300025EA0805DFF8B880404503D14FF00008E1
:1014400017E044E0DFF8AC80404502D14FF00108DE
:101450000FE0DFF8A480404502D14FF0020808E019
:10146000DFF89880404502D14FF0030801E04FF0CB
:10147000040808FA06F848EA0508CCF808804D6820
:10148000D9F80060ED024D4601D5164300E09643C1
:101490002E604D68DAF80060AD02554601D516435E
:1014A00000E096432E604D68DBF80060AD035D46BA
:1014B00001D5164300E096432E604D68DEF80060CB
:1014C000ED03754601D5164300E096432E60641C7B
:1014D0000D682A46E5407FF431AFBDE8F88F000083
:1014E00008040140000011100010024000000140FB
:1014F00000080140000C01400010014000140140B0
:1015000001488068704700004400002070B5040066
:1015100025D094F83D00002520B984F83C502046A1
:1015200000F014FB242084F83D002068016821F0BD
:10153000010101602068016841F4004101602068F8
:10154000016821F40041016000F06CFC4D4A6168C3
:10155000914201D84C4900E04C49884201D2012017
:1015600070BD4B492368B0FBF1F15E6826F03F0681
:101570000E435E606368934206D94FF496735943F5
:101580004FF47A73B1FBF3F12368491C1E6A26F00D
:101590003F06314319626168914210D84900401EEC
:1015A000B0FBF1F2521CC2F30B02042A01D2042058
:1015B00022E0B0FBF1F0401CC0F30B001CE0A2687D
:1015C000F2B301EBC10303EB0116431EB3FBF6F3C9
:1015D0005B1C43F480431B0549D092B301EBC1026D
:1015E00002EB0111401EB0FBF1F0401CC0F30B00F8
:1015F00040F4804040F400402168CA694CF6FF7313
:101600009A431043C861D4E9071001432068026877
:1016100022F0C00211430160D4E9030101432068B4
:10162000826848F2FF339A4311438160D4E905018F
:1016300008432168CA6822F0FF021043C86001E035
:101640000EE016E02068016841F0010101602564A8
:10165000202084F83D00256384F83E50002070BDB2
:1016600001EB4106431EB3FBF6F35B1CB3E701201D
:10167000C2E701EB4101401EB0FBF1F0401CC0F39A
:101680000B00B7E7A086010080841E0000093D0022
:1016900040420F002DE9F84F1F4690468A46044607
:1016A000DDF82890FFF72CFF054694F83D00202830
:1016B0007FD11923012240492046009500F0F0FE19
:1016C000002876D194F83C00012872D0012084F8DB
:1016D0003C0020680168C90703D1016841F001019D
:1016E00001602068016821F400610160212084F814
:1016F0003D00102084F83E0000262664C4F82480B3
:101700006785608D20852D48E0622B464A4651460C
:10171000204600F079FD90B9206841698069009009
:1017200036E02A464946204600F098FF50B1206C2A
:10173000042804D12068016841F40071016001208F
:10174000BDE8F88F606A216800780861606A401C13
:101750006062618D491E6185218D491E89B2218596
:1017600022685369DB435B070BD451B100781061E9
:10177000606A401C6062608D401E6085208D401E46
:1017800020852A464946204600F05EFE0028CED13C
:10179000208D0028C5D154F83D0B016841F400713B
:1017A0000160202004F81E09E67766770020C7E76D
:1017B000FFE70220C4E70000020010000000FFFF66
:1017C0002DE9FF4F83B00025DDE910799A46934655
:1017D0000446DDF848800095FFF792FE064694F82F
:1017E0003D0020287CD119230122884920460096FB
:1017F00000F056FE0028F5D194F83C0001286FD087
:10180000012084F83C0020680168C90703D1016801
:1018100041F0010101602068016821F4006101606C
:10182000222084F83D00402084F83E002564676251
:10183000A4F82A90608D20857548E062CDE9008685
:1018400053465A462046049900F02CFD00287CD1CE
:10185000208DDFF8C091202768B1012814D002281C
:10186000206801681ED041F48061016020684169F0
:1018700080690090BCE0206841698169009101683D
:1018800041F400710160B3E02068016821F48061D7
:10189000016072B62068416981690091016841F474
:1018A00000710AE041F40061016072B6206841698C
:1018B00081690091016821F48061016062B697E05E
:1018C000032865D801280CD0022843464FF00002B7
:1018D0004946204600960BD000F0E2FDA8BB0CE084
:1018E00091E032464146204600F080FE68BB72E03F
:1018F00000F0D6FD48BB72B633E02068016821F4E1
:101900008061016072B620680069616A0870606A6F
:10191000401C6062208D401E2085608D401E6085C9
:101920003D4846F2A8110068B0FBF1F0C0EBC000E2
:1019300000EB80000090401E009007D020684069B6
:10194000C04340070DD50098F5E727E044F8305F25
:101950006773A573206940F02000206162B625738B
:101960001CE02068016841F4007101602068006992
:10197000616A0870606A401C6062218D491E218581
:10198000618D491E618562B621680969017026E092
:1019900032464146204600F029FE18B1012007B02A
:1019A000BDE8F08F20680069616A0870606A401CB9
:1019B0006062208D401E81B22185608D401E608551
:1019C00020684269D243520712D4032903D1016827
:1019D00021F48061016020680069616A0870606AB2
:1019E000401C6062208D401E2085608D401E6085F9
:1019F000208D00287FF464AF84F83D7084F83E5059
:101A000084F83C50CBE70220C9E700000200100038
:101A10000000FFFF04000100500000202DE9FF4FEF
:101A200083B09A46DDE9119793460446DDF840807D
:101A3000FFF766FD054694F83D0020287FD1192365
:101A4000012240492046009500F02AFD002876D169
:101A500094F83C00012872D0012084F83C002068F2
:101A60000168C90703D1016841F0010101602068E4
:101A7000016821F400610160212084F83D004020CC
:101A800084F83E0000262664C4F82480A4F82A9036
:101A9000608D20852C48E062CDE9007553465A469A
:101AA0002046049900F07CFC70B930E02A463946A3
:101AB000204600F0D3FD58B1206C042804D12068E2
:101AC000016841F400710160012007B0BDE8F08FAA
:101AD000606A216800780861606A401C6062218D3C
:101AE000491E89B22185628D521E62852268536922
:101AF000DB435B070BD469B100781061606A401C5E
:101B00006062208D401E2085608D401E6085208D86
:101B10000028CBD12A463946204600F095FC002803
:101B2000CAD154F83D0B016841F4007101602020D6
:101B300004F81E09E67766770020C6E7FFE7022073
:101B4000C3E70000020010000000FFFF30B585B0C1
:101B5000002100910191029103911E4D03681E4CDA
:101B6000122103221D48AB4216D1A36943F008039A
:101B7000A361A369039203F008030493C023CDE992
:101B800000316946FFF7CCFBE06940F40010E061EA
:101B9000E06900F4001019E0114DAB4217D1A369C0
:101BA00043F00803A361A369039203F008030493BD
:101BB0004FF44063CDE900316946FFF7B1FBE069BE
:101BC00040F48000E061E06900F48000049005B01A
:101BD00030BD00000054004000100240000C0140E5
:101BE00000580040024881680278114481607047C3
:101BF00044000020074810B5016841F01001016061
:101C0000032000F067F80F2000F006F800F024F839
:101C1000002010BD0020024070B50D4D04464FF469
:101C20007A712878B1FBF0F00A490968B1FBF0F04D
:101C300000F0BEFA48B9102C07D200222146501EEF
:101C400000F028F800206C6070BD012070BD00001D
:101C500044000020500000200C4808B5816941F084
:101C600001018161816901F001010091C16941F0C7
:101C70008051C161C06900F0805000900448416803
:101C800021F0E06141F00071416008BD00100240A8
:101C900000000140F0B40E4B1B680C46C3F3022356
:101CA000C3F10705042D00D90425191D072901D208
:101CB000002300E0DB1E012606FA05F1491E214043
:101CC00099409E40761E16403143F0BC00F036BF6E
:101CD0000CED00E0064900F0070208684FF6FF032C
:101CE000184040EA0220034A104308607047000091
:101CF0000CED00E00000FA052DE9F0470F46050065
:101D000061D0434E306800F00700B84209D2306815
:101D100020F0070038433060306800F00700B84218
:101D200051D128683B4C810712D5400703D5606824
:101D300040F4E06060602878000703D5606840F4F4
:101D4000605060606068A96820F0F000084360603F
:101D50002878C00728D06868012810D02168022898
:101D600010D0890700292EDA616821F003010143B0
:101D70006160FFF7C5FB804641F288390DE02168BC
:101D80008903EFE78901EDE7FFF7BAFBA0EB080154
:101D9000494502D90320BDE8F0876068696800F012
:101DA0000C00B0EB810FEFD1306800F00700B842B3
:101DB0000BD9306820F0070038433060306800F0FD
:101DC0000700B84201D00120E5E72878400705D593
:101DD0006068E96820F4E0600843606028780007E4
:101DE00006D56068296920F4605040EAC10060604F
:101DF00000F028F86168084AC1F30311515CC8403B
:101E00000649086006480068FFF706FF0020C2E7A1
:101E10000020024000100240E43F00085000002073
:101E2000480000200448054900684968044AC1F395
:101E30000221515CC8407047500000200010024051
:101E4000F43F00080E4A51680E4801F00C03042BC1
:101E500011D0082B0FD10C48C1F38343C903C05CD8
:101E60000AD55168084AC1F34041921E515C054AA7
:101E70005043B0FBF1F070470449484370470000FD
:101E80000010024000127A00D43F000800093D0013
:101E90002DE9F84F040070D02078C04DC00749D01C
:101EA0006868C0F38100012807D06868C0F381002A
:101EB000022809D16868C00306D52868800339D58F
:101EC00060680028E7D035E06068B0F5803F0BD04F
:101ED00010B1B0F5A02F11D0286820F48030286010
:101EE000286820F4802002E0286840F480302860D0
:101EF000606890B1FFF704FB06460AE0286840F4EA
:101F000080202860F0E700BFFFF7FAFA801B642802
:101F100073D828688003F7D50CE0FFF7F1FA06467E
:101F200005E000BFFFF7ECFA801B6428F0D82868B2
:101F30008003F7D420789A4E80074FF001094FF0C4
:101F4000000839D5686810F00C0F07D06868C0F336
:101F50008100022809D16868C00306D42868800778
:101F600014D52069012808D110E02069B0B1C6F865
:101F70000090FFF7C5FA074605E00AE1FFF7C0FA4F
:101F8000C01B0228C4D828688007F7D52868616973
:101F900020F0F80040EAC10028600DE0C6F800809B
:101FA000FFF7AEFA074604E0FFF7AAFAC01B0228C3
:101FB00023D828688007F7D4207800072CD57948E3
:101FC000A169D9B1C0F80090FFF79AFA074604E07A
:101FD000FFF796FAC01B02280FD8686A8007F7D56A
:101FE00071484FF4FA510068B0FBF1F0009000BF67
:101FF0000098411E0091FAD20EE080E0C0F8008007
:10200000FFF77EFA074604E0FFF77AFAC01B0228C2
:1020100075D8686A8007F7D42078400760D5E869EA
:102020000027C00008D4E86940F08050E861E86902
:10203000012700F0805000905C480168C90513D466
:102040000168834641F480710160FFF759FA8246C6
:1020500006E000BFFFF754FAA0EB0A0064284ED850
:10206000DBF80000C005F5D5E06801280AD008B10A
:10207000052813D0286A20F001002862286A20F081
:10208000040002E0286A40F001002862E06841F2A2
:10209000883B98B1FFF734FA82460BE0286A40F09B
:1020A00004002862EEE700BFFFF72AFAA0EB0A015E
:1020B00059455AD8286A8007F6D50CE0FFF720FA70
:1020C000824605E0FFF71CFAA0EB0A0159454CD8FF
:1020D000286A8007F6D41FB1E86920F08050E861D3
:1020E000E06988B36968C1F38101022944D00228FC
:1020F000C6F8608004D0FFF703FA044638E034E005
:10210000FFF7FEF9074604E0FFF7FAF9C01B0228C3
:102110002BD828688001F7D4206AB0F5803F05D11C
:102120006868A16820F4003008436860D4E90801B9
:102130000843696821F4741108436860C6F8609028
:10214000FFF7DEF9044606E025E000BFFFF7D8F907
:10215000001B022809D828688001F7D51BE000BFC2
:10216000FFF7CEF9001B022802D90320BDE8F88F43
:1021700028688001F4D40EE00128F7D06868226A4C
:1021800000F48031914204D1616A00F470108842F9
:1021900001D00120EAE70020E8E70000001002403B
:1021A0000000424280044242500000200070004083
:1021B00010B5401EB0F1807F01D3012010BD4FF05B
:1021C000E02460610F21601700F0B8FC0020A061DE
:1021D00007202061002010BDFEE701684A69D24354
:1021E00052050FD46FF480624A61002140F8301F1D
:1021F000202242738173026942F00402026101737A
:102200000120704700207047F8B50446C06A1E469A
:102210000D461746082807D0012805D010F5803F45
:1022200002D0206B122804D12068016841F480712B
:102230000160134600224FF001112046009600F085
:102240002FF940B120680068C00502D54FF4007036
:1022500020640320F8BD2069B0F5804F0ED0062021
:10226000216800EAD51040F0F000086133463A4694
:102270000B49204600F05CF978B902E005F0FE0059
:1022800000E0E8B221680861054933463A46891FF3
:10229000204600F04DF90028DCD00120F8BD0000F8
:1022A000080001002DE9F84F0446006889460B9D9F
:1022B00001689846174641F4806101602068016812
:1022C00041F48071016000954FF0011B00225946D6
:1022D00020460A9B00F0E4F84FF4007A40B12068F1
:1022E0000068C00501D5C4F840A00320BDE8F88F00
:1022F000216809F0FE0008612B46284920460A9A09
:1023000000F016F9F0BB20684169806900902A4608
:1023100020460A9900F0A2F940B1206C04283AD175
:102320002068016841F40071016034E0FEB2B8F148
:10233000010F09D02168380A08612A4620460A9907
:1023400000F08CF90028E8D1206806612A46204672
:102350000A9900F083F90028DFD12068016841F470
:102360008071016000950022594620460A9B00F0CA
:1023700097F80028B3D1216809F0FF0040F0010070
:10238000086100E007E02B46044920460A9A00F065
:10239000CFF80028AAD00120A8E700000200010021
:1023A0002DE9F843044600680D46DDE90897016809
:1023B0009846164641F4807101604B4600224FF06A
:1023C00001112046009700F06BF848B120680068C2
:1023D000C00502D54FF4007020640320BDE8F883E7
:1023E000216805F0FE0008613B464A461549204633
:1023F00000F09EF888B920684169806900903A46EB
:102400004946204600F02AF948B1206C042804D13E
:102410002068016841F4007101600120DEE7F5B237
:10242000B8F1010F09D02168300A08613A464946DF
:10243000204600F013F90028E7D12068056100204C
:10244000CCE700000200010070B516460D460446B8
:102450001EE02046FFF7C1FE08B1012070BD681CD8
:1024600016D0FFF74DF8801BA84200D885B9206828
:102470004069C04340070BD5002044F8300F2021AD
:102480006173A073216941F0200121612073E4E7A9
:1024900020684069C0434007DBD4002070BD0000C5
:1024A0002DE9F047984617460D460446C1F3074606
:1024B000DDF820902AE000BFB8F1FF3F26D0FFF7FB
:1024C0001FF8A0EB0901414502D8B8F1000F1DD15A
:1024D0002068012E16D0806925EA00000004000C57
:1024E00012D00020B84211D1002044F8300F202132
:1024F0006173A073216941F02001216120730120E3
:10250000BDE8F0874069E7E70120EBE72068012E8E
:102510000AD0806925EA00000004000C06D00020E3
:10252000B842C9D00020EBE74069F3E70120F7E7A4
:102530002DE9F047984616460D4604464FF000092F
:102540004FF0200AC1F3074723E020684069C043E9
:10255000400515D42068016841F4007101602168CC
:102560006FF480604861C4F8309084F83DA084F82E
:102570003E90216C41F00401216484F83C9021E0FC
:10258000701C06D0FEF7BCFFA0EB0800B04203D8D9
:1025900016B1012F1FD021E02068012F15D08069CE
:1025A00025EA00000004000C18D000BF44F8309F5A
:1025B00084F80DA084F80E90216941F0200121617A
:1025C00084F80C900120BDE8F087406925EA0000FE
:1025D0000004000CEAD12068406901E020688069AD
:1025E00025EA00000004000CAFD1ECE72DE9F04132
:1025F000002590460E460446202728E04069C04347
:10260000C0060CD454F8301B6FF01000486144F839
:1026100010596777A577206A2062257714E0FEF7C6
:102620006FFFA0EB0800B04200D886B9206840696F
:10263000C04340060BD544F8305F6773A57320692B
:1026400040F02000206125730120BDE8F081206862
:102650004169C9434906D1D40020F6E770B5164652
:102660000D4604461EE02046FFF7B7FD08B10120E5
:1026700070BD681C16D0FEF743FF801BA84200D82F
:1026800085B920684069C04300060BD5002044F896
:10269000300F20216173A073216941F02001216175
:1026A0002073E4E720684069C0430006DBD40020C3
:1026B00070BD0000F0B585B001244FF47A7504A810
:1026C0008DE8310023467522D0212848FFF778F89D
:1026D0009DF81000682846D103AE8DF80C40009696
:1026E00001236B22D0212148CDE90145FFF796F95E
:1026F00000208DF80C00009601236C22D0211B488D
:10270000CDE90145FFF78AF906208DF80C00009607
:1027100001231A22D0211548CDE90145FFF77EF9A2
:1027200009208DF80C00009601231922D0210F48B2
:10273000CDE90145FFF772F918278DF80C70009666
:1027400001231C22D0210948CDE90145FFF766F994
:102750008DF80C70009601231B22D0210348CDE98F
:102760000145FFF75BF905B0F0BD0000A8000020AF
:10277000F0B585B04FF47A72062103A88DE8070002
:1027800001233B22D0211A48FFF71AF8BDF80C00AC
:10279000184C40BA00B22080BDF80E1049BA0EB2F3
:1027A0006680BDF8101049BA0DB2A58000F006FD94
:1027B0006FF00A073A4600F001FF00F0C5FAE0604A
:1027C000304600F0FBFC3A4600F0F8FE00F0BCFAA0
:1027D0002061284600F0F2FC3A4600F0EFFE0022AD
:1027E000054B00F057FD00F0AFFA606105B0F0BD99
:1027F000A8000020000000200000E03F2DE9F0418B
:1028000086B04FF47A72062103A88DE807000123F1
:102810004322D0211B48FEF7D3FFBDF80C001A4C11
:1028200040BA00B2E080BDF80E1049BA0EB226815F
:10283000BDF8101049BA0DB2658100F0BFFCDFF899
:102840004C804FF066373A46434600F05FFB00F09D
:102850007BFAA061304600F0B1FC3A46434600F0F6
:1028600055FB00F071FAE061284600F0A7FC3A46FB
:10287000434600F04BFB00F067FA206206B0BDE86B
:10288000F0810000A80000200000002066663040B3
:10289000114808B5816941F010018161816901F039
:1028A00010010091816941F020018161816901F08D
:1028B00020010091816941F008018161816901F085
:1028C00008010091816941F004018161806900F093
:1028D0000400009008BD0000001002400D4810B533
:1028E0000B4901600C49416000214FF48042816036
:1028F000C0E9031241618161C1610162FEF706FE18
:10290000002803D0BDE81040FEF7F6BC10BD000063
:102910000054004054000020A08601000D4810B56E
:102920000B4901600C49416000214FF480428160F5
:10293000C0E9031241618161C1610162FEF7E6FDF8
:10294000002803D0BDE81040FEF7D6BC10BD000043
:1029500000580040A8000020A0860100FEE7FEE726
:1029600070B5002400252946204600F0FEF800201E
:1029700000F020F96D1CEDB2082DF4D3641CE4B214
:10298000802CEFD370BD000030B587B0182208A1AD
:102990006846FDF7E7FC00246D46285D00F0F8F876
:1029A000641CE4B2172CF8D3FFF7DAFF07B030BD90
:1029B000AED580A83FD30040A1C8DA1281CFD9F1AB
:1029C000DB40A4A68D14AF0010B50021074C0A46C9
:1029D000002004EBC1131A54401CC0B28028FAD363
:1029E000491CC9B20829F3D310BD0000FC00002027
:1029F00070B5203AD5B200F0B8F8074905EB4500AC
:102A0000002401EB4005285D00F0D4F8641CE4B21A
:102A1000062CF8D370BD0000783C0008F0B5A3B0D8
:102A200040200024134E8DF8040001AD671E0020E5
:102A300006EBC4112B180A5C401CC0B25A708028E7
:102A4000F8D304F1B000C0B200F0A2F8022000F008
:102A50009FF8102000F09CF8812301AA7A210648F3
:102A60000097FEF717FE641CE4B2082CDFD323B0F6
:102A7000F0BD0000FC000020540000202DE9F041D2
:102A800015460F46064600240AE000BF04EB44004A
:102A900006EB4000C0B23946FFF7AAFF641CE4B25F
:102AA0002A5D002AF2D1BDE8F08170477047FFF738
:102AB00099B830B58FB028216846FDF785FC142100
:102AC0000AA8FDF781FC01210804CDE900100024CB
:102AD000029402250491CDE907504FF4E0100990CB
:102AE0006846FFF7D5F908B172B6FEE70F20CDE9C9
:102AF0000A054FF48060CDE90C4002210AA80E942B
:102B0000FFF7FAF8002801D072B6FEE70FB030BD2B
:102B10007047FEE7490050EAC12018BF04204A0D63
:102B200018BF40F0010040F2FF72B2EB515F08BFE6
:102B300040F00200012808BF052070470907090E70
:102B4000002804DB00F1E02080F80014704700F05A
:102B50000F0000F1E02080F8141D704730380A287B
:102B600001D2012070470020704770B504460D4621
:102B700000F00F0000F00CF8102040EA141000F0F4
:102B800007F845F0B000BDE8704000F001B8000063
:102B900001B584B001214FF4807204A88DE80700CC
:102BA0000B46002278210248FEF738FF05B000BD31
:102BB0005400002001B584B001214FF4807204A8B4
:102BC0008DE807000B46402278210248FEF726FFD9
:102BD00005B000BD5400002092B0FFF70BF8FFF7DE
:102BE00068FFFFF755FEFFF779FEFFF797FE142009
:102BF000FEF784FBFFF7C8FEFFF75CFD354C364D52
:102C0000364E374FDFF8DC80DFF8DC904FF4FA7A8D
:102C1000FFF7AEFDFFF7F2FD206800F025FC02464D
:102C20000B4632A16846FDF7DBFA286800F01CFC71
:102C300002460B462FA103A8FDF7D2FA306800F038
:102C400013FC02460B462DA106A8FDF7C9FA386809
:102C500000F00AFC02460B462AA109A8FDF7C0FABB
:102C6000D8F8000000F000FC02460B4627A10CA893
:102C7000FDF7B6FAD9F8000000F0F6FB02460B4665
:102C800024A10FA8FDF7ACFAFFF79EFE00216A46CB
:102C90000846FFF7F3FE03AA01210020FFF7EEFE2E
:102CA00006AA02210020FFF7E9FE09AA032100205D
:102CB000FFF7E4FE0CAA04210020FFF7DFFE0FAAB5
:102CC00005210020FFF7DAFEFFF7A8FE5046FEF7C9
:102CD00015FB9DE7180000201C00002020000020AC
:102CE0000C000020100000201400002047783A2536
:102CF0003266000047793A2532660000477A3A2565
:102D00003266000041783A253266000041793A2562
:102D100032660000417A3A253266000010B500297B
:102D20000AD00878002807D005487844FDF7D4FE7B
:102D3000002801D0002010BD0248784410BD0000DA
:102D4000861300007E13000021F00042A2F16052C1
:102D5000B2F5801F01F0004328BFD2F17F6C0BD980
:102D60005FEA001C43EAC20242EB507018BF704792
:102D700028BF20F001007047B2F5801FBCBF184685
:102D800070474FEA410C1CF5001F02D2084600F0C4
:102D9000DCBB70B500F029FA00000089FFF7F6BF30
:102DA0004FF00040A0F580007047000010B591EA98
:102DB000030F48BF83F0004300F17482841A71EB63
:102DC000030C05D2121943EB0C03001B61EB0C0141
:102DD000DFF824E14FEA1154A4EB135C1EEA430F21
:102DE00018BF9EEA445F73D023EA0E03DCF1200E85
:102DF00021EA045143F4801332D322FA0CFE10EB83
:102E00000E0023FA0CFE41EB0E01CCF1200E03FA6A
:102E10000EFE10EB0E0051F10001B1F5801FCCF158
:102E2000200E32D201EB045112FA0EF2BDE810402E
:102E300058BF7047401C38BF5FEA420218BF704756
:102E4000002814BF20F0010041F100014FEA4103C6
:102E500013F5001F38BF7047A1F1C04100F013BA4D
:102E6000012A43EB0302ACF1200CDCF11F0E32BF50
:102E70004FF0000E23FA0CF310EB030041EB04516A
:102E8000B4EB115FD0D0A1EB045101F580114908DA
:102E90005FEA300001EB04510ED350F1000038BF5F
:102EA00012FA0EFE08D1BDE81040C9E7401C38BF39
:102EB0005FEA4202CAD1C3E7BDE810404FEA4103CE
:102EC00013F5001F38BF7047A1F1C04100F0DBB916
:102ED0009EEA445F08D011EA5E0FBDE8104004BFCF
:102EE00001F0004100207047BDE8104070B500F0CF
:102EF0007CF900BF64FBBE3E0000E0FF02494FF0DA
:102F0000000000F029BB00BF0000F87F2DE9C041A0
:102F100030B4DFF8A0C23CEA111418BF3CEA131425
:102F200000F0EC8081EA03051CEA111444EAD57430
:102F300018BF1CEA131500F0C780A4EB05044FF07E
:102F4000004545EAC12145EAC32341EA505143EA1D
:102F5000525304F17F74994204F500344FEAC020C3
:102F60004FEAC22208BF904200F09C804FEA1365EE
:102F70000FF24016765D4FEA134506FB05F7C7F1E1
:102F8000807706FB07F74FEAD737A7FB036876423F
:102F9000C8F58038A7FB06CE38BFA8F1010807FBAB
:102FA00008E64FF0000EA6FB028CE6FB03CEDCF138
:102FB000000CCEF1004E38BFAEF1010EA6FB0C584E
:102FC0004FF000074FF00005E6FB0E87A1FB08C697
:102FD000A0FB07CE16EB0E0645F10005E1FB0765E9
:102FE00015F1E04E7EBFA4F580345FEA46066D41E0
:102FF00016F1800745F100054FEA17274FEA0666EC
:1030000047EA0567A6F1DE46B6F1805F4FEA15256F
:103010001FD9384624F0010C05EBC471BCF1FE6FDA
:1030200001EB0C1102D8F0BCBDE8008124425CBF6A
:1030300001F5801E9EEAC47F02D4F0BCBDE8008189
:10304000244238D4F0BCA1F1C041BDE8004100F0F9
:103050001AB94FEAD22242EA43524FEAD323A7FBDE
:1030600002864FEAD02040EA415007FB03661EEA81
:103070000E0F4FEAD12105FB026658BFA6EB0056A2
:10308000B6EB00564FEA520E4EEAC37E18EB0E0E18
:1030900056EB530EBDD518EB02085E417F1C55F16F
:1030A0000005B6E74FF480154FF000074FF000061B
:1030B0004FF00008ADE7F0BC4FF0000001F1C04157
:1030C00001F00041BDE8008111EA0C1F0CEA131564
:1030D00000D00CE013EA0C1F00F025804FF0000038
:1030E000F0BC81EA030101F00041BDE80081F0BCC1
:1030F000BDE8004181EA030100F0C5B8F0BCBDE8BD
:10310000004170B500F071F8097EFC3E00F007B890
:1031100081EA03014FF0000001F00041704781EAAD
:10312000030100F0B0B8F0BCBDE800414FF0000072
:1031300021497047FFFDFBF9F7F5F4F2F0EEEDEBF6
:10314000E9E8E6E4E3E1E0DEDDDBDAD8D7D5D4D3A5
:10315000D1D0CFCDCCCBCAC8C7C6C5C4C2C1C0BFF1
:10316000BEBDBCBBBAB9B8B7B6B5B4B3B2B1B0AFF7
:10317000AEADACABAAA9A8A8A7A6A5A4A3A3A2A1DB
:10318000A09F9F9E9D9C9C9B9A9999989797969596
:1031900095949393929191908F8F8E8E8D8C8C8B32
:1031A0008B8A8989888887878685858484838382BA
:1031B000828181800000FF070000F87F10F000424C
:1031C00048BF4042B0FA80F310FA03F10AD0C3F1CD
:1031D0001D0303F580634FEA415002EB035202EBFB
:1031E000D12170474FF0000070470EF1020E2EF013
:1031F000030E5EF8046B364205D4012A43EB030547
:1032000015F5001F12D8012841EB010C1CF5001F19
:103210000CD80ED14FEAD17C15F5001F0CEB4C0CED
:103220000CF1020C08BF4CEBD37C04E04FF0080C0F
:1032300001E04FEAD37C0CEB4C0526FA05F606F0CC
:103240000706B6F1040C06D20EEB860CBDE8704002
:103250004CF0010C6047DFE80CF0090B02024FF064
:1032600000414FF00000A1F5002170BD1946104645
:10327000012851EB010418BFD4F5001484BF0020CD
:1032800001F0004170BD0808A0F500114FEA3101BE
:103290007047000010B591EA030F48BF83F0004368
:1032A0003FF58CAD841A71EB030C07D212198CF028
:1032B000004C43EB0C03001B61EB0C01DFF8A4E1B5
:1032C0004FEA1154A4EB135C1EEA430F18BF9EEAA9
:1032D000445F00F0B08023EA6E03524221EA0451B9
:1032E000C3EB6E0338BF5B1EDCF1200E25D322FA40
:1032F0000CFE10EB0E0043FA0CFE41EB0E01CCF17C
:10330000200E03FA0EFE10EB0E0051F10001CCF17D
:10331000200E29D412FA0EF201EB0451BDE8104040
:1033200058BF7047401C1CBFB2F1004F70470028C7
:103330000CBF491C20F00100704712EB020E43EB5A
:10334000030218BF4FF0010E4EEA4202ACF1200C0E
:10335000DCF11E0E54D943FA0CFE10EB0E0051F1B5
:10336000FF31CCF11E0ED5D50EF1010E12FA0EFE74
:10337000404141EB010101EB445C5FEA5C5C10D928
:1033800010EBDE7001EB045138BFBEF1004FBDE819
:10339000104018BF704700280CBF491C20F00100E6
:1033A000704730D24FEAD42C11F5001124F4006498
:1033B0001BD0B1FA81F20B3AA41AA41ED2F1200359
:1033C000914030FA03F31943904001EBCC71002C8B
:1033D00001EB0451BDE81040A8BF704701F1C041A6
:1033E0004FF0000001F000417047B0FA80F310FA8E
:1033F00003F100D110BDE41A173C4805C90AE4E7FF
:1034000001EB045110BD491001EB0451BDE810401F
:103410004FEA300002E04FF0000170474A0008BF59
:103420000042F8D0B2F5001F28BF704701F00041FC
:103430004FF0000070479EEA445F07D011EA5E0F2C
:10344000BDE8104004BF002100207047BDE81040D7
:1034500070B5FFF7CAFE00BF40DFF63E83F00041C3
:10346000104670470000E0FF43004FEAD30C4FEADC
:103470003C0C43401FBF40070CF1605113F0FE4F5E
:1034800070471CF0006F03D100200CF00041704722
:103490000CF0004343EA507010B540EACC0000F055
:1034A0000EF800BF000000924FEA0001FFF7EBBEEC
:1034B0004FF000414FF00000A1F5002170470EF1E0
:1034C000020E2EF0030E5EF8044B244204D44FEAA1
:1034D0004102B2F17F4F11D84FEA4003B3F17F4F61
:1034E0000CD80ED14FEAD07CB2F17F4F0CEB4C0CD4
:1034F0000CF1020C08BF4CEBD17C04E04FF0080C3F
:1035000001E04FEAD17C0CEB4C0324FA03F404F005
:103510000704B4F1040C06D20EEB840CBDE8104095
:103520004CF0010C6047DFE80CF0070802024FF096
:103530000040A0F5800010BD0846420018BFD2F13F
:10354000807288BF00F0004010BDFF2141EAD050DA
:10355000C0057047FDF73BB80CF00F03092B08BFFF
:10356000082000F059800A2B0BD0082B18BF704799
:1035700008BF1CF0400F0AD04FF000004FF00001D0
:1035800070471CF0400F18BF4FF0004070471CF010
:10359000100F08D020F0704300F07F4242EAD301C0
:1035A0004FEA4370704700F0604021F07F4242EAEA
:1035B000000201F07F4040EA727070474FF0FF0C4C
:1035C0004CF4E06C1CEA11531CBF9CEA030C9445BC
:1035D000C2BFDA4201EB02517047002B0DD0BCF1A3
:1035E000000F0FD0002A01F00041A4BF41F0E041DC
:1035F00041F07F614FF00000704701F000414FF053
:103600000000704750EA01334FF09B0C18BF4CF09C
:10361000806C7FF473AC70471CF4801F11D01CF4D5
:10362000E02F03D06FEACC31490070474FF0405093
:10363000EFF3008222F0704242EA000282F3008837
:1036400070474FF0000070470000403028E620101F
:1036500000E0404020E00000004022110D07090971
:10366000011F080808070000000020108844A0403F
:103670004848C84444400000000002017F000000A8
:1036800000407F000000000000000000000000007B
:103690000000000000000000000000F80000000032
:1036A000000000333000000000160E00160E00006F
:1036B000000000000000000040C07840C0784000DA
:1036C000043F04043F040400007088FC083000003C
:1036D000001820FF211E0000F008F000E018000094
:1036E00000211C031E211E0000F00888700000004D
:1036F0001E21232419272110000000160E000000AF
:103700000000000000000000000000E018040200BB
:10371000000000071820400000020418E00000002C
:103720000040201807000000404080F0804040002A
:103730000202010F01020200000000F00000000080
:103740000101011F01010100000000000000000054
:1037500000B0700000000000000000000000000049
:103760000001010101010101000000000000000052
:1037700000303000000000000000000080601804ED
:10378000006018060100000000E010080810E000CA
:10379000000F102020100F00001010F80000000093
:1037A0000020203F202000000070080808887000DA
:1037B000003028242221300000300888884830005A
:1037C0000018202020110E000000C02010F800007A
:1037D00000070424243F240000F808888808080013
:1037E0000019212020110E0000E010888818000028
:1037F000000F112020110E0000380808C8380800FA
:103800000000003F00000000007088080888700079
:10381000001C222121221C0000E010080810E000FA
:103820000000312222110F00000000C0C000000083
:103830000000003030000000000000C0C0000000A8
:10384000000080B0700000000000804020100800E0
:103850000001020408102000404040404040400069
:103860000404040404040400000810204080000044
:103870000020100804020100007048080808F00049
:103880000000003036010000C030C828E810E00019
:103890000718272423140B000000C038E0000000A4
:1038A000203C23020227382008F88888887000000E
:1038B000203F202020110E00C030080808083800E2
:1038C000071820202010080008F808080810E00059
:1038D000203F202020100F0008F88888E8081000FA
:1038E000203F20202320180008F88888E8081000CE
:1038F000203F200003000000C03008080838000006
:1039000007182020221E020008F808000008F80806
:10391000203F210101213F20000808F8080800008D
:103920000020203F2020000000000808F8080800C0
:10393000C08080807F00000008F888C02818080038
:10394000203F20012638200008F808000000000071
:10395000203F20202020300008F8F800F8F8080068
:10396000203F003F003F200008F830C00008F80862
:10397000203F200007183F00E01008080810E00072
:103980000F10202020100F0008F808080808F00089
:10399000203F210101010000E01008080810E000AC
:1039A0000F18242438504F0008F888888888700041
:1039B000203F2000030C30200070880808083800E1
:1039C0000038202121221C00180808F808081800D7
:1039D0000000203F2000000008F808000008F80858
:1039E000001F202020201F000878880000C8380809
:1039F000000007380E010000F80800F80008F80081
:103A0000033C0700073C030008186880806818081A
:103A100020302C03032C30200838C800C838080098
:103A20000000203F2000000010080808C8380800E7
:103A30002038262120201800000000FE020202008B
:103A40000000007F40404000000C30C0000000003B
:103A5000000000010638C00000020202FE00000063
:103A6000004040407F0000000020100804081020A3
:103A70000000000000000000000000000000000046
:103A80008080808080808080000204080000000028
:103A90000000000000000000000080808080000026
:103AA0000019242222223F2008F800808000000014
:103AB000003F112020110E000000008080800000D7
:103AC000000E112020201100000000808088F800E6
:103AD000000E112020103F20000080808080000018
:103AE000001F222222221300008080F0888888187C
:103AF0000020203F20200000000080808080800087
:103B0000006B94949493600008F80080808000001B
:103B1000203F210000203F200080989800000000F6
:103B20000020203F20200000000000809898000026
:103B300000C08080807F000008F800008080800046
:103B4000203F24022D302000000808F8000000006B
:103B50000020203F20200000808080808080800026
:103B6000203F20003F20003F008080008080000038
:103B700000203F2100203F20000080808080000046
:103B8000001F202020201F00808000808000000077
:103B900080FFA12020110E000000008080808000A6
:103BA000000E112020A0FF80808080008080800097
:103BB00020203F21200001000000808080808000C4
:103BC0000033242424241900008080E08080000039
:103BD0000000001F20200000808000000080800086
:103BE000001F202020103F208080800000808080E7
:103BF00000010E3008060100808000800080808077
:103C00000F300C030C300F0000808000808080009B
:103C10000020312E0E3120008080800000808080C6
:103C200080818E7018060100008080808080800076
:103C30000021302C2221300000000000807C020294
:103C400000000000003F404000000000FF000000B6
:103C500000000000FF0000000002027C8000000065
:103C60000040403F00000000008040408000008095
:103C70000000000000010100000000000000000042
:103C8000002F000000000700070000147F147F14BD
:103C900000242A7F2A120023130864620036495543
:103CA000225000000007000000001C22410000001C
:103CB00041221C000014083E08140008083E0808B1
:103CC000000000A06000000808080808000060600C
:103CD0000000002010080402003E5149453E00004B
:103CE000427F4000004261514946002141454B312D
:103CF000001814127F10002745454539003C4A49F9
:103D0000493000017109050300364949493600066A
:103D10004949291E000036360000000056360000D2
:103D2000000814224100001414141414000041224D
:103D30001408000201510906003E4955592E007C25
:103D40001211127C007F49494936003E414141220F
:103D5000007F4141221C007F49494941007F0909F8
:103D60000901003E4149497A007F0808087F0000A8
:103D7000417F4100002040413F01007F0814224163
:103D8000007F40404040007F020C027F007F04081B
:103D9000107F003E4141413E007F09090906003E77
:103DA0004151215E007F09192946004649494931A0
:103DB0000001017F0101003F4040403F001F2040C3
:103DC000201F003F4038403F006314081463000781
:103DD0000870080700615149454300007F414100D8
:103DE000000204081020000041417F00000402018D
:103DF0000204004040404040000001020400002056
:103E000054545478007F4844443800384444442093
:103E100000384444487F00385454541800087E0940
:103E200001020018A4A4A47C007F08040478000008
:103E3000447D4000004080847D00007F10284400C5
:103E40000000417F4000007C04180478007C0804D6
:103E5000047800384444443800FC24242418001812
:103E6000242418FC007C08040408004854545420FE
:103E700000043F444020003C4040207C001C204087
:103E8000201C003C4030403C004428102844001CCA
:103E9000A0A0A07C004464544C440000087F410072
:103EA0000000007F00000000417F080000080408B7
:103EB00010080000000000000000000000000000EA
:103EC0000000000000000000008000000000000072
:103ED000008000008080C0E08080000000000000C2
:103EE000000000000000000000080808080808089A
:103EF00008080800000000C28389C969C9C9000810
:103F0000F8B38020262524FE2410100000000000B5
:103F100000000000000000000000000000000000A1
:103F2000000000000000000000000101010000028C
:103F30000303030204040F04040400000000000053
:103F40000000000000000000000010101010108899
:103F5000000000000000000000000000000080845D
:103F60009C8080E8988EC8888404000000000000CF
:103F7000000000000000000000000020212121219D
:103F80002020202020000000002020606072565D6C
:103F90004181818484843F04040400000000008087
:103FA0000000000000000000000000000000000011
:103FB0000000000000000000000000000000000001
:103FC00000000000000001010101010202020203E1
:103FD0000000010202030405060708090A0B0C0D84
:103FE0000E0F10100000000000000000010203048A
:103FF0000607080900000000010203040240000057
:10400000000000A00000000005400000000000C803
:10401000000000000C4000000000409C0000000078
:10402000194000000020BCBE000000003440000029
:10403000BFC91B8E00000004B5400000504BCFD01C
:104040006607E2CF010000006C4100003E8251AAE9
:10405000DFEEA73401000000D9420000DCB5A0E289
:104060003A301F97FFFFFFFFB4450000FD25A0C8B1
:10407000E9A3C14FFFFFFFFFFF3F000000000080EA
:1040800000000000FF3F0000000000800000000072
:10409000CC40000800000020540000002801000867
:1040A00020410008540000200C0B000044010008CF
:1040B0001C00000043000000F8FFFFFF0C000000A0
:1040C0000E0000000F0000002E00000000000000A5
:1040D00000000000000000000000000000000000E0
:1040E00000000000000000000000000000000000D0
:1040F00000000000000000000000000000000000C0
:1041000000000000000000000000000000000000AF
:1041100001000000100000000000000000127A0002
:04000005080000ED02
:00000001FF
